S0160000547261666669635F73797374656D2E737265634B
S11300000C942A000C94D1020C94FA020C9423034D
S11300100C943C000C943C000C943C000C946F0336
S11300200C943C000C943C000C943C000C943C005C
S11300300C943C000C943C000C943C000C943C004C
S11300400C943C000C943C000C943C000C943C003C
S11300500C943C0011241FBECFE5D8E0DEBFCDBF19
S113006020E0A0E6B0E001C01D92AB36B207E1F794
S11300700E9474010C94B9030C94000081E08093F5
S1130080600008950F931F9360E080E00E94680170
S113009061E080E00E94680162E080E00E94680103
S11300A060E081E00E94680161E081E00E946801F3
S11300B062E081E00E9468010EE310E023E040E08A
S11300C062E083E00E944A011F910F91089580919C
S11300D06000882321F0813009F4A4C0F8CF60E0E7
S11300E080E00E946C0162E081E00E946C01C0E04B
S11300F00BC080916000813011F41092600084E69E
S113010090E00E94A203CF5FC23398F360E080E0E6
S11301100E94700162E081E00E947001C0E026C08C
S113012080916000813049F461E080E00E947001B8
S113013061E081E00E94700118C061E080E00E94EB
S11301406C0161E081E00E946C0184E690E00E9411
S1130150A20361E080E00E94700161E081E00E94FE
S1130160700184E690E00E94A203CF5FC931C0F21F
S113017061E080E00E94700161E081E00E94700112
S113018062E080E00E946C0160E081E00E946C010A
S1130190C0E012C080916000813049F462E080E0E8
S11301A00E94700160E081E00E94700104C084E656
S11301B090E00E94A203CF5FC23360F362E080E06C
S11301C00E94700160E081E00E947001C0E01FC0E5
S11301D080916000813011F41092600061E080E051
S11301E00E946C0161E081E00E946C0184E690E071
S11301F00E94A20361E080E00E94700161E081E05E
S11302000E94700184E690E00E94A203CF5FC9318E
S1130210F8F261E080E00E94700161E081E00E94F8
S1130220700155CF60E080E00E94700162E081E0DF
S11302300E94700162E080E00E94700160E081E051
S11302400E947001C0E019C061E080E00E946C016E
S113025061E081E00E946C0184E690E00E94A203C8
S113026061E080E00E94700161E081E00E94700121
S113027084E690E00E94A203CF5FC93128F361E0D5
S113028080E00E94700161E081E00E9470011092A0
S113029060001DCFEF92FF920F931F93CF93DF93D4
S11302A0C82FD62FF42EE22E40E00E947B0141E0BD
S11302B06D2F8C2F0E94EC01A8016E2D8F2D0E94B2
S11302C05D02DF91CF911F910F91FF90EF90089500
S11302D041E00E947B01089541E00E94EC010895F1
S11302E040E00E94EC0108950E9442000E946700D1
S11302F080E090E00895442319F04130C9F1089555
S1130300813091F028F08230D9F0833029F10895BA
S11303102AB381E090E002C0880F991F6A95E2F742
S1130320809582238ABB089527B381E090E002C0C0
S1130330880F991F6A95E2F78095822387BB0895F9
S113034024B381E090E002C0880F991F6A95E2F718
S11303508095822384BB089521B381E090E002C09C
S1130360880F991F6A95E2F78095822381BB0895CF
S1130370813089F028F08230C9F0833011F108957A
S11303802AB381E090E002C0880F991F6A95E2F7D2
S1130390822B8ABB089527B381E090E002C0880FC6
S11303A0991F6A95E2F7822B87BB089524B381E0F5
S11303B090E002C0880F991F6A95E2F7822B84BBF4
S11303C0089521B381E090E002C0880F991F6A95D7
S11303D0E2F7822B81BB0895442319F04130C9F11F
S11303E00895813091F028F08230D9F0833029F1DA
S11303F008952BB381E090E002C0880F991F6A959D
S1130400E2F7809582238BBB089528B381E090E0C6
S113041002C0880F991F6A95E2F78095822388BBF2
S1130420089525B381E090E002C0880F991F6A9572
S1130430E2F78095822385BB089522B381E090E0A2
S113044002C0880F991F6A95E2F78095822382BBC8
S11304500895813089F028F08230C9F0833011F199
S113046008952BB381E090E002C0880F991F6A952C
S1130470E2F7822B8BBB089528B381E090E002C0A1
S1130480880F991F6A95E2F7822B88BB089525B3DC
S113049081E090E002C0880F991F6A95E2F7822BF1
S11304A085BB089522B381E090E002C0880F991FB4
S11304B06A95E2F7822B82BB08959FB790689FBF2D
S11304C0813081F120F0823009F457C008958BB750
S11304D080648BBF5093660040936500613069F07F
S11304E028F0623089F06330B1F0089585B78D7FCC
S11304F085BF85B78E7F85BF089585B78D7F85BFFE
S113050085B7816085BF089585B7826085BF85B74B
S11305108E7F85BF089585B7826085BF85B781606A
S113052085BF08958BB780688BBF50936400409358
S11305306300613069F028F0623089F06330B1F013
S1130540089585B7877F85BF85B78B7F85BF08955D
S113055085B7877F85BF85B7846085BF089585B7D4
S1130560886085BF85B78B7F85BF089585B7886010
S113057085BF85B7846085BF08958BB780628BBFC4
S11305805093620040936100623019F0633029F0A7
S1130590089584B78F7B84BF089584B7806484BF33
S11305A008951F920F920FB60F9211242F933F9329
S11305B04F935F936F937F938F939F93AF93BF9367
S11305C0EF93FF93E0916500F0916600309709F096
S11305D00995FF91EF91BF91AF919F918F917F9179
S11305E06F915F914F913F912F910F900FBE0F909C
S11305F01F9018951F920F920FB60F9211242F93EC
S11306003F934F935F936F937F938F939F93AF9396
S1130610BF93EF93FF93E0916300F09164003097F0
S113062009F00995FF91EF91BF91AF919F918F913F
S11306307F916F915F914F913F912F910F900FBEDA
S11306400F901F9018951F920F920FB60F921124BE
S11306502F933F934F935F936F937F938F939F93C6
S1130660AF93BF93EF93FF93E0916100F091620029
S1130670309709F00995FF91EF91BF91AF919F9148
S11306808F917F916F915F914F913F912F910F9037
S11306900FBE0F901F9018952EB521602EBD2EB55C
S11306A028602EBD2FB528602FBD2FB520642FBD27
S11306B023E02BBD28EE2ABD29B7206129BF2FB71F
S11306C020682FBF1DBC1CBC9093680080936700FA
S11306D008951FBC1EBC89B7837C89BF08951F92EF
S11306E00F920FB60F9211242F933F934F935F9362
S11306F06F937F938F939F93AF93BF93EF93FF93E6
S1130700E0916700F0916800309709F00995FF9136
S1130710EF91BF91AF919F918F917F916F915F9175
S11307204F913F912F910F900FBE0F901F901895EE
S11307308091690090916A00019690936A00809379
S113074069000895CF93DF93EC0188E993E00E9458
S11307504C0310926A001092690080916900909194
S11307606A008C179D07C8F30E946903DF91CF913B
S10907700895F894FFCF88
S9030000FC
